{
  "contractName": "MerkelTree",
  "abi": [
    {
      "constant": true,
      "inputs": [],
      "name": "MT",
      "outputs": [
        {
          "name": "cur",
          "type": "uint256"
        }
      ],
      "payable": false,
      "stateMutability": "view",
      "type": "function"
    },
    {
      "constant": true,
      "inputs": [
        {
          "name": "",
          "type": "uint256"
        }
      ],
      "name": "serials",
      "outputs": [
        {
          "name": "",
          "type": "bool"
        }
      ],
      "payable": false,
      "stateMutability": "view",
      "type": "function"
    },
    {
      "constant": true,
      "inputs": [],
      "name": "no_leaves",
      "outputs": [
        {
          "name": "",
          "type": "uint256"
        }
      ],
      "payable": false,
      "stateMutability": "view",
      "type": "function"
    },
    {
      "constant": true,
      "inputs": [
        {
          "name": "",
          "type": "uint256"
        }
      ],
      "name": "roots",
      "outputs": [
        {
          "name": "",
          "type": "bool"
        }
      ],
      "payable": false,
      "stateMutability": "view",
      "type": "function"
    },
    {
      "constant": true,
      "inputs": [],
      "name": "tree_depth",
      "outputs": [
        {
          "name": "",
          "type": "uint256"
        }
      ],
      "payable": false,
      "stateMutability": "view",
      "type": "function"
    },
    {
      "inputs": [
        {
          "name": "_mimc",
          "type": "address"
        }
      ],
      "payable": false,
      "stateMutability": "nonpayable",
      "type": "constructor"
    },
    {
      "anonymous": false,
      "inputs": [
        {
          "indexed": false,
          "name": "index",
          "type": "uint256"
        }
      ],
      "name": "LeafAdded",
      "type": "event"
    },
    {
      "anonymous": false,
      "inputs": [
        {
          "indexed": false,
          "name": "",
          "type": "uint256"
        }
      ],
      "name": "TestMimc",
      "type": "event"
    },
    {
      "anonymous": false,
      "inputs": [
        {
          "indexed": false,
          "name": "",
          "type": "uint256[8]"
        },
        {
          "indexed": false,
          "name": "",
          "type": "uint256[8]"
        }
      ],
      "name": "MerkleProof",
      "type": "event"
    },
    {
      "constant": false,
      "inputs": [
        {
          "name": "com",
          "type": "uint256"
        }
      ],
      "name": "insert",
      "outputs": [
        {
          "name": "",
          "type": "uint256"
        }
      ],
      "payable": false,
      "stateMutability": "nonpayable",
      "type": "function"
    },
    {
      "constant": false,
      "inputs": [
        {
          "name": "index",
          "type": "uint256"
        }
      ],
      "name": "getMerkelProof",
      "outputs": [
        {
          "name": "",
          "type": "uint256[8]"
        },
        {
          "name": "",
          "type": "uint256[8]"
        }
      ],
      "payable": false,
      "stateMutability": "nonpayable",
      "type": "function"
    },
    {
      "constant": false,
      "inputs": [
        {
          "name": "input",
          "type": "uint256"
        },
        {
          "name": "sk",
          "type": "uint256"
        }
      ],
      "name": "getMimc",
      "outputs": [
        {
          "name": "",
          "type": "uint256"
        }
      ],
      "payable": false,
      "stateMutability": "nonpayable",
      "type": "function"
    },
    {
      "constant": false,
      "inputs": [
        {
          "name": "leaf",
          "type": "uint256"
        },
        {
          "name": "depth",
          "type": "uint256"
        }
      ],
      "name": "getUniqueLeaf",
      "outputs": [
        {
          "name": "",
          "type": "uint256"
        }
      ],
      "payable": false,
      "stateMutability": "nonpayable",
      "type": "function"
    },
    {
      "constant": false,
      "inputs": [],
      "name": "updateTree",
      "outputs": [
        {
          "name": "root",
          "type": "uint256"
        }
      ],
      "payable": false,
      "stateMutability": "nonpayable",
      "type": "function"
    },
    {
      "constant": true,
      "inputs": [
        {
          "name": "j",
          "type": "uint256"
        },
        {
          "name": "k",
          "type": "uint256"
        }
      ],
      "name": "getLeaf",
      "outputs": [
        {
          "name": "root",
          "type": "uint256"
        }
      ],
      "payable": false,
      "stateMutability": "view",
      "type": "function"
    },
    {
      "constant": true,
      "inputs": [],
      "name": "getRoot",
      "outputs": [
        {
          "name": "root",
          "type": "uint256"
        }
      ],
      "payable": false,
      "stateMutability": "view",
      "type": "function"
    }
  ],
  "bytecode": "0x6080604052600860025561010060035534801561001b57600080fd5b50604051602080610c4d8339810180604052602081101561003b57600080fd5b81019080805190602001909291905050508061090560006101000a81548173ffffffffffffffffffffffffffffffffffffffff021916908373ffffffffffffffffffffffffffffffffffffffff16021790555050610baf8061009e6000396000f3fe608060405234801561001057600080fd5b50600436106100b45760003560e01c806398cd96af1161007157806398cd96af1461021b5780639ad1ee9d14610261578063a03515fd146102fa578063c2b40ae414610318578063e08dfff81461035e578063ee427b1d1461037c576100b4565b80632fb2798d146100b95780634a1f11a7146101055780634d556bed146101235780635ca1e1651461016f57806367615a691461018d57806390b5561d146101d9575b600080fd5b6100ef600480360360408110156100cf57600080fd5b81019080803590602001909291908035906020019092919050505061039a565b6040518082815260200191505060405180910390f35b61010d6103c7565b6040518082815260200191505060405180910390f35b6101596004803603604081101561013957600080fd5b8101908080359060200190929190803590602001909291905050506103d3565b6040518082815260200191505060405180910390f35b6101776104be565b6040518082815260200191505060405180910390f35b6101c3600480360360408110156101a357600080fd5b8101908080359060200190929190803590602001909291905050506104eb565b6040518082815260200191505060405180910390f35b610205600480360360208110156101ef57600080fd5b810190808035906020019092919050505061069d565b6040518082815260200191505060405180910390f35b6102476004803603602081101561023157600080fd5b810190808035906020019092919050505061074a565b604051808215151515815260200191505060405180910390f35b61028d6004803603602081101561027757600080fd5b810190808035906020019092919050505061076a565b6040518083600860200280838360005b838110156102b857808201518184015260208101905061029d565b5050505090500182600860200280838360005b838110156102e65780820151818401526020810190506102cb565b505050509050019250505060405180910390f35b610302610920565b6040518082815260200191505060405180910390f35b6103446004803603602081101561032e57600080fd5b8101908080359060200190929190505050610926565b604051808215151515815260200191505060405180910390f35b610366610946565b6040518082815260200191505060405180910390f35b61038461094c565b6040518082815260200191505060405180910390f35b6000600460010183600981106103ac57fe5b61010002018261010081106103bd57fe5b0154905092915050565b60048060000154905081565b6000808314156104b55760008090505b828110156104b35761090560009054906101000a900473ffffffffffffffffffffffffffffffffffffffff1673ffffffffffffffffffffffffffffffffffffffff1663d15ca10985866040518363ffffffff1660e01b81526004018083815260200182815260200192505050602060405180830381600087803b15801561046957600080fd5b505af115801561047d573d6000803e3d6000fd5b505050506040513d602081101561049357600080fd5b8101908080519060200190929190505050935080806001019150506103e3565b505b82905092915050565b60006004600101600254600981106104d257fe5b6101000201600061010081106104e457fe5b0154905090565b60007fcf925dbffc79dd560a14e9fb74c7ba7fa5bef0e98c9fbd3c3b4a498c302c7ac161090560009054906101000a900473ffffffffffffffffffffffffffffffffffffffff1673ffffffffffffffffffffffffffffffffffffffff1663d15ca10985856040518363ffffffff1660e01b81526004018083815260200182815260200192505050602060405180830381600087803b15801561058c57600080fd5b505af11580156105a0573d6000803e3d6000fd5b505050506040513d60208110156105b657600080fd5b81019080805190602001909291905050506040518082815260200191505060405180910390a161090560009054906101000a900473ffffffffffffffffffffffffffffffffffffffff1673ffffffffffffffffffffffffffffffffffffffff1663d15ca10984846040518363ffffffff1660e01b81526004018083815260200182815260200192505050602060405180830381600087803b15801561065a57600080fd5b505af115801561066e573d6000803e3d6000fd5b505050506040513d602081101561068457600080fd5b8101908080519060200190929190505050905092915050565b600060035460046000015414156106b357600080fd5b8160046001016000600981106106c557fe5b610100020160046000015461010081106106db57fe5b01819055506106e861094c565b507fee14d40b05aa42dee41bd28416dcb3ca632a33e9f6ea33a4bca7ffcb959388586004600001546040518082815260200191505060405180910390a16004600001600081548092919060010191905055506001600460000154039050919050565b60006020528060005260406000206000915054906101000a900460ff1681565b610772610b60565b61077a610b60565b610782610b60565b61078a610b60565b60008090505b600254811015610883576000600287816107a657fe5b06141561080d5760018382600881106107bb57fe5b6020020181815250506107f3600460010182600981106107d757fe5b61010002016001880161010081106107eb57fe5b0154826103d3565b8282600881106107ff57fe5b602002018181525050610869565b600083826008811061081b57fe5b6020020181815250506108536004600101826009811061083757fe5b610100020160018803610100811061084b57fe5b0154826103d3565b82826008811061085f57fe5b6020020181815250505b6002868161087357fe5b0495508080600101915050610790565b507fb32f3ab38e24247edb1bf988fa9b37c62ef392f712e2ec5537057af901fef39c81836040518083600860200280838360005b838110156108d25780820151818401526020810190506108b7565b5050505090500182600860200280838360005b838110156109005780820151818401526020810190506108e5565b505050509050019250505060405180910390a18082935093505050915091565b60035481565b60016020528060005260406000206000915054906101000a900460ff1681565b60025481565b600080600460000154905060008060008090505b600254811015610b315760006002858161097657fe5b04905060006002868161098557fe5b0614156109e7576004600101826009811061099c57fe5b61010002018561010081106109ad57fe5b015493506109e0600460010183600981106109c457fe5b61010002016001870161010081106109d857fe5b0154836103d3565b9250610a3e565b610a16600460010183600981106109fa57fe5b6101000201600187036101008110610a0e57fe5b0154836103d3565b935060046001018260098110610a2857fe5b6101000201856101008110610a3957fe5b015492505b61090560009054906101000a900473ffffffffffffffffffffffffffffffffffffffff1673ffffffffffffffffffffffffffffffffffffffff1663d15ca10985856040518363ffffffff1660e01b81526004018083815260200182815260200192505050602060405180830381600087803b158015610abc57600080fd5b505af1158015610ad0573d6000803e3d6000fd5b505050506040513d6020811015610ae657600080fd5b810190808051906020019092919050505060046001016001840160098110610b0a57fe5b6101000201826101008110610b1b57fe5b0181905550809450508080600101915050610960565b50600460010160025460098110610b4457fe5b610100020160006101008110610b5657fe5b0154935050505090565b60405180610100016040528060089060208202803883398082019150509050509056fea165627a7a7230582019d3ed9492444d22b1c3ebfb6f075c24ab2b05ef3652d7b6889ed7f4aac797e30029",
  "source": "pragma solidity ^0.5.0;\n\ncontract IMimc {\n  function MiMCpe7(uint256 in_x,uint256 in_k) public returns(uint256 out_x);\n}\n\ncontract MerkelTree {\n    mapping (uint256 => bool) public serials;\n    mapping (uint256 => bool) public roots;\n    uint public tree_depth = 8;\n    uint public no_leaves = 256;\n    struct Mtree {\n        uint256 cur;\n        uint256[256][9] leaves2; // tree depth + 1\n    }\n\n    Mtree public MT;\n\n    IMimc mimc;\n\n    event LeafAdded(uint256 index);\n    \n    event TestMimc(uint256);\n    \n    event MerkleProof(uint256[8] , uint256[8] );\n\n    constructor(address _mimc) public{\n        mimc = IMimc(_mimc);\n    }\n\n    //Merkletree.append(com)\n    function insert(uint256 com) public returns (uint256 ) {\n        require (MT.cur != no_leaves );\n        MT.leaves2[0][MT.cur] = com;\n        updateTree();\n        emit LeafAdded(MT.cur);\n        MT.cur++;\n   \n        return MT.cur-1;\n    }\n\n\n    function getMerkelProof(uint256 index) public returns (uint256[8] memory, uint256[8] memory) {\n\n        uint256[8] memory address_bits;\n        uint256[8] memory merkelProof;\n\n        for (uint256 i=0 ; i < tree_depth; i++) {\n            // address_bits[i] = index%2;\n            if (index%2 == 0) {\n                address_bits[i]=1;\n                merkelProof[i] = getUniqueLeaf(MT.leaves2[i][index + 1],i);\n            }\n            else {\n                address_bits[i]=0;\n                merkelProof[i] = getUniqueLeaf(MT.leaves2[i][index - 1],i);\n            }\n            index = uint256(index/2);\n        }\n        emit MerkleProof(merkelProof, address_bits);\n        return(merkelProof, address_bits);   \n    }\n    \n    function getMimc(uint256 input, uint256 sk) public returns ( uint256) { \n        emit TestMimc(mimc.MiMCpe7(input , sk));\n        return mimc.MiMCpe7(input , sk); \n    }\n\n    function getUniqueLeaf(uint256 leaf, uint256 depth) public returns (uint256) {\n        if (leaf == 0) {\n            for (uint256 i=0;i<depth;i++) {\n                leaf = mimc.MiMCpe7(leaf, leaf);\n            }\n        }\n        return (leaf);\n    }\n    \n    function updateTree() public returns(uint256 root) {\n        uint256 CurrentIndex = MT.cur;\n        uint256 leaf1;\n        uint256 leaf2;\n        for (uint256 i=0 ; i < tree_depth; i++) {\n            uint256 NextIndex = CurrentIndex/2;\n            if (CurrentIndex%2 == 0) {\n                leaf1 =  MT.leaves2[i][CurrentIndex];\n                leaf2 = getUniqueLeaf(MT.leaves2[i][CurrentIndex + 1], i);\n            } else {\n                leaf1 = getUniqueLeaf(MT.leaves2[i][CurrentIndex - 1], i);\n                leaf2 =  MT.leaves2[i][CurrentIndex];\n            }\n            MT.leaves2[i+1][NextIndex] = mimc.MiMCpe7( leaf1, leaf2);\n            CurrentIndex = NextIndex;\n        }\n        return MT.leaves2[tree_depth][0];\n    }\n    \n   \n    function getLeaf(uint256 j,uint256 k) public view returns (uint256 root) {\n        root = MT.leaves2[j][k];\n    }\n\n    function getRoot() public view returns(uint256 root) {\n        root = MT.leaves2[tree_depth][0];\n    }\n\n}\n\n\n",
  "sourcePath": "/Users/shouhewu/Downloads/mixer_sample/contracts/MerkleTree.sol",
  "compiler": {
    "name": "solc",
    "version": "0.5.8+commit.23d335f2.Emscripten.clang"
  },
  "schemaVersion": "3.0.11",
  "updatedAt": "2019-11-17T15:50:28.077Z",
  "devdoc": {
    "methods": {}
  },
  "userdoc": {
    "methods": {}
  }
}