{
  "contractName": "Mixer",
  "abi": [
    {
      "constant": true,
      "inputs": [
        {
          "name": "",
          "type": "uint256"
        }
      ],
      "name": "nullifierHashes",
      "outputs": [
        {
          "name": "",
          "type": "bool"
        }
      ],
      "payable": false,
      "stateMutability": "view",
      "type": "function"
    },
    {
      "constant": true,
      "inputs": [
        {
          "name": "j",
          "type": "uint256"
        },
        {
          "name": "k",
          "type": "uint256"
        }
      ],
      "name": "getLeaf",
      "outputs": [
        {
          "name": "root",
          "type": "uint256"
        }
      ],
      "payable": false,
      "stateMutability": "view",
      "type": "function"
    },
    {
      "constant": true,
      "inputs": [
        {
          "name": "",
          "type": "uint256"
        }
      ],
      "name": "commitments",
      "outputs": [
        {
          "name": "",
          "type": "bool"
        }
      ],
      "payable": false,
      "stateMutability": "view",
      "type": "function"
    },
    {
      "constant": true,
      "inputs": [],
      "name": "MT",
      "outputs": [
        {
          "name": "cur",
          "type": "uint256"
        }
      ],
      "payable": false,
      "stateMutability": "view",
      "type": "function"
    },
    {
      "constant": false,
      "inputs": [
        {
          "name": "leaf",
          "type": "uint256"
        },
        {
          "name": "depth",
          "type": "uint256"
        }
      ],
      "name": "getUniqueLeaf",
      "outputs": [
        {
          "name": "",
          "type": "uint256"
        }
      ],
      "payable": false,
      "stateMutability": "nonpayable",
      "type": "function"
    },
    {
      "constant": true,
      "inputs": [],
      "name": "getRoot",
      "outputs": [
        {
          "name": "root",
          "type": "uint256"
        }
      ],
      "payable": false,
      "stateMutability": "view",
      "type": "function"
    },
    {
      "constant": false,
      "inputs": [
        {
          "name": "input",
          "type": "uint256"
        },
        {
          "name": "sk",
          "type": "uint256"
        }
      ],
      "name": "getMimc",
      "outputs": [
        {
          "name": "",
          "type": "uint256"
        }
      ],
      "payable": false,
      "stateMutability": "nonpayable",
      "type": "function"
    },
    {
      "constant": false,
      "inputs": [
        {
          "name": "com",
          "type": "uint256"
        }
      ],
      "name": "insert",
      "outputs": [
        {
          "name": "",
          "type": "uint256"
        }
      ],
      "payable": false,
      "stateMutability": "nonpayable",
      "type": "function"
    },
    {
      "constant": true,
      "inputs": [
        {
          "name": "",
          "type": "uint256"
        }
      ],
      "name": "serials",
      "outputs": [
        {
          "name": "",
          "type": "bool"
        }
      ],
      "payable": false,
      "stateMutability": "view",
      "type": "function"
    },
    {
      "constant": false,
      "inputs": [
        {
          "name": "index",
          "type": "uint256"
        }
      ],
      "name": "getMerkelProof",
      "outputs": [
        {
          "name": "",
          "type": "uint256[8]"
        },
        {
          "name": "",
          "type": "uint256[8]"
        }
      ],
      "payable": false,
      "stateMutability": "nonpayable",
      "type": "function"
    },
    {
      "constant": true,
      "inputs": [],
      "name": "no_leaves",
      "outputs": [
        {
          "name": "",
          "type": "uint256"
        }
      ],
      "payable": false,
      "stateMutability": "view",
      "type": "function"
    },
    {
      "constant": true,
      "inputs": [
        {
          "name": "",
          "type": "uint256"
        }
      ],
      "name": "roots",
      "outputs": [
        {
          "name": "",
          "type": "bool"
        }
      ],
      "payable": false,
      "stateMutability": "view",
      "type": "function"
    },
    {
      "constant": true,
      "inputs": [],
      "name": "AMOUNT",
      "outputs": [
        {
          "name": "",
          "type": "uint256"
        }
      ],
      "payable": false,
      "stateMutability": "view",
      "type": "function"
    },
    {
      "constant": true,
      "inputs": [],
      "name": "tree_depth",
      "outputs": [
        {
          "name": "",
          "type": "uint256"
        }
      ],
      "payable": false,
      "stateMutability": "view",
      "type": "function"
    },
    {
      "constant": false,
      "inputs": [],
      "name": "updateTree",
      "outputs": [
        {
          "name": "root",
          "type": "uint256"
        }
      ],
      "payable": false,
      "stateMutability": "nonpayable",
      "type": "function"
    },
    {
      "constant": true,
      "inputs": [
        {
          "name": "a",
          "type": "uint256[2]"
        },
        {
          "name": "b",
          "type": "uint256[2][2]"
        },
        {
          "name": "c",
          "type": "uint256[2]"
        },
        {
          "name": "input",
          "type": "uint256[2]"
        }
      ],
      "name": "verifyProof",
      "outputs": [
        {
          "name": "r",
          "type": "bool"
        }
      ],
      "payable": false,
      "stateMutability": "view",
      "type": "function"
    },
    {
      "inputs": [
        {
          "name": "_mimc",
          "type": "address"
        }
      ],
      "payable": false,
      "stateMutability": "nonpayable",
      "type": "constructor"
    },
    {
      "anonymous": false,
      "inputs": [
        {
          "indexed": true,
          "name": "commitment",
          "type": "uint256"
        },
        {
          "indexed": false,
          "name": "leafIndex",
          "type": "uint256"
        },
        {
          "indexed": false,
          "name": "timestamp",
          "type": "uint256"
        }
      ],
      "name": "Deposit",
      "type": "event"
    },
    {
      "anonymous": false,
      "inputs": [
        {
          "indexed": false,
          "name": "to",
          "type": "address"
        },
        {
          "indexed": false,
          "name": "nullifierHash",
          "type": "uint256"
        }
      ],
      "name": "Withdraw",
      "type": "event"
    },
    {
      "anonymous": false,
      "inputs": [
        {
          "indexed": true,
          "name": "commitment",
          "type": "uint256"
        },
        {
          "indexed": false,
          "name": "leafIndex",
          "type": "uint256"
        },
        {
          "indexed": false,
          "name": "timestamp",
          "type": "uint256"
        }
      ],
      "name": "Forward",
      "type": "event"
    },
    {
      "anonymous": false,
      "inputs": [
        {
          "indexed": false,
          "name": "index",
          "type": "uint256"
        }
      ],
      "name": "LeafAdded",
      "type": "event"
    },
    {
      "anonymous": false,
      "inputs": [
        {
          "indexed": false,
          "name": "",
          "type": "uint256"
        }
      ],
      "name": "TestMimc",
      "type": "event"
    },
    {
      "anonymous": false,
      "inputs": [
        {
          "indexed": false,
          "name": "",
          "type": "uint256[8]"
        },
        {
          "indexed": false,
          "name": "",
          "type": "uint256[8]"
        }
      ],
      "name": "MerkleProof",
      "type": "event"
    },
    {
      "constant": false,
      "inputs": [
        {
          "name": "_commitment",
          "type": "uint256"
        }
      ],
      "name": "deposit",
      "outputs": [],
      "payable": true,
      "stateMutability": "payable",
      "type": "function"
    },
    {
      "constant": false,
      "inputs": [
        {
          "name": "a",
          "type": "uint256[2]"
        },
        {
          "name": "b",
          "type": "uint256[2][2]"
        },
        {
          "name": "c",
          "type": "uint256[2]"
        },
        {
          "name": "input",
          "type": "uint256[2]"
        }
      ],
      "name": "withdraw",
      "outputs": [],
      "payable": true,
      "stateMutability": "payable",
      "type": "function"
    },
    {
      "constant": false,
      "inputs": [
        {
          "name": "a",
          "type": "uint256[2]"
        },
        {
          "name": "b",
          "type": "uint256[2][2]"
        },
        {
          "name": "c",
          "type": "uint256[2]"
        },
        {
          "name": "input",
          "type": "uint256[2]"
        },
        {
          "name": "_commitment",
          "type": "uint256"
        }
      ],
      "name": "forward",
      "outputs": [
        {
          "name": "",
          "type": "address"
        }
      ],
      "payable": false,
      "stateMutability": "nonpayable",
      "type": "function"
    },
    {
      "constant": false,
      "inputs": [
        {
          "name": "_root",
          "type": "uint256"
        }
      ],
      "name": "isKnownRoot",
      "outputs": [
        {
          "name": "",
          "type": "bool"
        }
      ],
      "payable": false,
      "stateMutability": "nonpayable",
      "type": "function"
    }
  ],
  "bytecode": "0x6080604052600860025561010060035534801561001b57600080fd5b50604051602080612bc78339810180604052602081101561003b57600080fd5b8101908080519060200190929190505050808061090560006101000a81548173ffffffffffffffffffffffffffffffffffffffff021916908373ffffffffffffffffffffffffffffffffffffffff1602179055505050612b27806100a06000396000f3fe60806040526004361061011f5760003560e01c80639ad1ee9d116100a0578063c78784d711610064578063c78784d71461072a578063d17891761461088b578063e08dfff8146108b6578063ee427b1d146108e1578063f5c9d69e1461090c5761011f565b80639ad1ee9d14610585578063a03515fd1461062b578063a6232a9314610656578063b6b55f25146106a9578063c2b40ae4146106d75761011f565b80634d556bed116100e75780634d556bed146104065780635ca1e1651461045f57806367615a691461048a57806390b5561d146104e357806398cd96af146105325761011f565b80631f79a1e9146101245780632fb2798d14610177578063402f825f146101d057806349ce8997146103885780634a1f11a7146103db575b600080fd5b34801561013057600080fd5b5061015d6004803603602081101561014757600080fd5b8101908080359060200190929190505050610a92565b604051808215151515815260200191505060405180910390f35b34801561018357600080fd5b506101ba6004803603604081101561019a57600080fd5b810190808035906020019092919080359060200190929190505050610ab3565b6040518082815260200191505060405180910390f35b3480156101dc57600080fd5b5061034660048036036101608110156101f457600080fd5b8101908080604001906002806020026040519081016040528092919082600260200280828437600081840152601f19601f82011690508083019250505050505091929192908060800190600280602002604051908101604052809291906000905b828210156102a9578382604002016002806020026040519081016040528092919082600260200280828437600081840152601f19601f82011690508083019250505050505081526020019060010190610255565b50505050919291929080604001906002806020026040519081016040528092919082600260200280828437600081840152601f19601f820116905080830192505050505050919291929080604001906002806020026040519081016040528092919082600260200280828437600081840152601f19601f820116905080830192505050505050919291929080359060200190929190505050610ae0565b604051808273ffffffffffffffffffffffffffffffffffffffff1673ffffffffffffffffffffffffffffffffffffffff16815260200191505060405180910390f35b34801561039457600080fd5b506103c1600480360360208110156103ab57600080fd5b8101908080359060200190929190505050610dcd565b604051808215151515815260200191505060405180910390f35b3480156103e757600080fd5b506103f0610dee565b6040518082815260200191505060405180910390f35b34801561041257600080fd5b506104496004803603604081101561042957600080fd5b810190808035906020019092919080359060200190929190505050610dfa565b6040518082815260200191505060405180910390f35b34801561046b57600080fd5b50610474610ee5565b6040518082815260200191505060405180910390f35b34801561049657600080fd5b506104cd600480360360408110156104ad57600080fd5b810190808035906020019092919080359060200190929190505050610f12565b6040518082815260200191505060405180910390f35b3480156104ef57600080fd5b5061051c6004803603602081101561050657600080fd5b81019080803590602001909291905050506110c4565b6040518082815260200191505060405180910390f35b34801561053e57600080fd5b5061056b6004803603602081101561055557600080fd5b8101908080359060200190929190505050611171565b604051808215151515815260200191505060405180910390f35b34801561059157600080fd5b506105be600480360360208110156105a857600080fd5b8101908080359060200190929190505050611191565b6040518083600860200280838360005b838110156105e95780820151818401526020810190506105ce565b5050505090500182600860200280838360005b838110156106175780820151818401526020810190506105fc565b505050509050019250505060405180910390f35b34801561063757600080fd5b50610640611347565b6040518082815260200191505060405180910390f35b34801561066257600080fd5b5061068f6004803603602081101561067957600080fd5b810190808035906020019092919050505061134d565b604051808215151515815260200191505060405180910390f35b6106d5600480360360208110156106bf57600080fd5b8101908080359060200190929190505050611378565b005b3480156106e357600080fd5b50610710600480360360208110156106fa57600080fd5b81019080803590602001909291905050506114b5565b604051808215151515815260200191505060405180910390f35b610889600480360361014081101561074157600080fd5b8101908080604001906002806020026040519081016040528092919082600260200280828437600081840152601f19601f82011690508083019250505050505091929192908060800190600280602002604051908101604052809291906000905b828210156107f6578382604002016002806020026040519081016040528092919082600260200280828437600081840152601f19601f820116905080830192505050505050815260200190600101906107a2565b50505050919291929080604001906002806020026040519081016040528092919082600260200280828437600081840152601f19601f820116905080830192505050505050919291929080604001906002806020026040519081016040528092919082600260200280828437600081840152601f19601f82011690508083019250505050505091929192905050506114d6565b005b34801561089757600080fd5b506108a061177e565b6040518082815260200191505060405180910390f35b3480156108c257600080fd5b506108cb611789565b6040518082815260200191505060405180910390f35b3480156108ed57600080fd5b506108f661178f565b6040518082815260200191505060405180910390f35b34801561091857600080fd5b50610a78600480360361014081101561093057600080fd5b8101908080604001906002806020026040519081016040528092919082600260200280828437600081840152601f19601f82011690508083019250505050505091929192908060800190600280602002604051908101604052809291906000905b828210156109e5578382604002016002806020026040519081016040528092919082600260200280828437600081840152601f19601f82011690508083019250505050505081526020019060010190610991565b50505050919291929080604001906002806020026040519081016040528092919082600260200280828437600081840152601f19601f820116905080830192505050505050919291929080604001906002806020026040519081016040528092919082600260200280828437600081840152601f19601f82011690508083019250505050505091929192905050506119a3565b604051808215151515815260200191505060405180910390f35b6109076020528060005260406000206000915054906101000a900460ff1681565b600060046001018360098110610ac557fe5b6101000201826101008110610ad657fe5b0154905092915050565b60008083600160028110610af057fe5b60200201519050600084600060028110610b0657fe5b60200201519050610908600085815260200190815260200160002060009054906101000a900460ff1615610b85576040517f08c379a0000000000000000000000000000000000000000000000000000000008152600401808060200182810382526021815260200180612adb6021913960400191505060405180910390fd5b610907600083815260200190815260200160002060009054906101000a900460ff1615610c1a576040517f08c379a000000000000000000000000000000000000000000000000000000000815260040180806020018281038252601f8152602001807f546865206e6f746520686173206265656e20616c7265616479207370656e740081525060200191505060405180910390fd5b610c238161134d565b610c95576040517f08c379a000000000000000000000000000000000000000000000000000000000815260040180806020018281038252601c8152602001807f43616e6e6f742066696e6420796f7572206d65726b6c6520726f6f740000000081525060200191505060405180910390fd5b610ca1888888886119a3565b610d13576040517f08c379a00000000000000000000000000000000000000000000000000000000081526004018080602001828103825260168152602001807f496e76616c69642077697468647261772070726f6f660000000000000000000081525060200191505060405180910390fd5b6000610d1e856110c4565b905060016109066000610d2f610ee5565b815260200190815260200160002060006101000a81548160ff0219169083151502179055506001610907600085815260200190815260200160002060006101000a81548160ff021916908315150217905550847f8b308ce1fde3cadb8cddda513c6aadca41a74c90b1361aba19bd3b9b6f811dd38242604051808381526020018281526020019250505060405180910390a250505095945050505050565b6109086020528060005260406000206000915054906101000a900460ff1681565b60048060000154905081565b600080831415610edc5760008090505b82811015610eda5761090560009054906101000a900473ffffffffffffffffffffffffffffffffffffffff1673ffffffffffffffffffffffffffffffffffffffff1663d15ca10985866040518363ffffffff1660e01b81526004018083815260200182815260200192505050602060405180830381600087803b158015610e9057600080fd5b505af1158015610ea4573d6000803e3d6000fd5b505050506040513d6020811015610eba57600080fd5b810190808051906020019092919050505093508080600101915050610e0a565b505b82905092915050565b6000600460010160025460098110610ef957fe5b610100020160006101008110610f0b57fe5b0154905090565b60007fcf925dbffc79dd560a14e9fb74c7ba7fa5bef0e98c9fbd3c3b4a498c302c7ac161090560009054906101000a900473ffffffffffffffffffffffffffffffffffffffff1673ffffffffffffffffffffffffffffffffffffffff1663d15ca10985856040518363ffffffff1660e01b81526004018083815260200182815260200192505050602060405180830381600087803b158015610fb357600080fd5b505af1158015610fc7573d6000803e3d6000fd5b505050506040513d6020811015610fdd57600080fd5b81019080805190602001909291905050506040518082815260200191505060405180910390a161090560009054906101000a900473ffffffffffffffffffffffffffffffffffffffff1673ffffffffffffffffffffffffffffffffffffffff1663d15ca10984846040518363ffffffff1660e01b81526004018083815260200182815260200192505050602060405180830381600087803b15801561108157600080fd5b505af1158015611095573d6000803e3d6000fd5b505050506040513d60208110156110ab57600080fd5b8101908080519060200190929190505050905092915050565b600060035460046000015414156110da57600080fd5b8160046001016000600981106110ec57fe5b6101000201600460000154610100811061110257fe5b018190555061110f61178f565b507fee14d40b05aa42dee41bd28416dcb3ca632a33e9f6ea33a4bca7ffcb959388586004600001546040518082815260200191505060405180910390a16004600001600081548092919060010191905055506001600460000154039050919050565b60006020528060005260406000206000915054906101000a900460ff1681565b611199612959565b6111a1612959565b6111a9612959565b6111b1612959565b60008090505b6002548110156112aa576000600287816111cd57fe5b0614156112345760018382600881106111e257fe5b60200201818152505061121a600460010182600981106111fe57fe5b610100020160018801610100811061121257fe5b015482610dfa565b82826008811061122657fe5b602002018181525050611290565b600083826008811061124257fe5b60200201818152505061127a6004600101826009811061125e57fe5b610100020160018803610100811061127257fe5b015482610dfa565b82826008811061128657fe5b6020020181815250505b6002868161129a57fe5b04955080806001019150506111b7565b507fb32f3ab38e24247edb1bf988fa9b37c62ef392f712e2ec5537057af901fef39c81836040518083600860200280838360005b838110156112f95780820151818401526020810190506112de565b5050505090500182600860200280838360005b8381101561132757808201518184015260208101905061130c565b505050509050019250505060405180910390a18082935093505050915091565b60035481565b6000610906600083815260200190815260200160002060009054906101000a900460ff169050919050565b610908600082815260200190815260200160002060009054906101000a900460ff16156113f0576040517f08c379a0000000000000000000000000000000000000000000000000000000008152600401808060200182810382526021815260200180612adb6021913960400191505060405180910390fd5b662386f26fc10000341461140357600080fd5b600061140e826110c4565b90506001610908600084815260200190815260200160002060006101000a81548160ff0219169083151502179055506001610906600061144c610ee5565b815260200190815260200160002060006101000a81548160ff021916908315150217905550817f33da4f9b82b3e18a281ca2cabbe2f076925692abb593b7ea3f850009e8ec97708242604051808381526020018281526020019250505060405180910390a25050565b6109066020528060005260406000206000915054906101000a900460ff1681565b6000816001600281106114e557fe5b602002015190506000826000600281106114fb57fe5b60200201519050610907600083815260200190815260200160002060009054906101000a900460ff1615611597576040517f08c379a000000000000000000000000000000000000000000000000000000000815260040180806020018281038252601f8152602001807f546865206e6f746520686173206265656e20616c7265616479207370656e740081525060200191505060405180910390fd5b6115a08161134d565b611612576040517f08c379a000000000000000000000000000000000000000000000000000000000815260040180806020018281038252601c8152602001807f43616e6e6f742066696e6420796f7572206d65726b6c6520726f6f740000000081525060200191505060405180910390fd5b61161e868686866119a3565b611690576040517f08c379a00000000000000000000000000000000000000000000000000000000081526004018080602001828103825260168152602001807f496e76616c69642077697468647261772070726f6f660000000000000000000081525060200191505060405180910390fd5b6001610907600084815260200190815260200160002060006101000a81548160ff0219169083151502179055503373ffffffffffffffffffffffffffffffffffffffff166108fc662386f26fc100009081150290604051600060405180830381858888f1935050505015801561170a573d6000803e3d6000fd5b507f884edad9ce6fa2440d8a54cc123490eb96d2768479d49ff9c7366125a94243643383604051808373ffffffffffffffffffffffffffffffffffffffff1673ffffffffffffffffffffffffffffffffffffffff1681526020018281526020019250505060405180910390a1505050505050565b662386f26fc1000081565b60025481565b600080600460000154905060008060008090505b600254811015611974576000600285816117b957fe5b0490506000600286816117c857fe5b06141561182a57600460010182600981106117df57fe5b61010002018561010081106117f057fe5b015493506118236004600101836009811061180757fe5b610100020160018701610100811061181b57fe5b015483610dfa565b9250611881565b6118596004600101836009811061183d57fe5b610100020160018703610100811061185157fe5b015483610dfa565b93506004600101826009811061186b57fe5b610100020185610100811061187c57fe5b015492505b61090560009054906101000a900473ffffffffffffffffffffffffffffffffffffffff1673ffffffffffffffffffffffffffffffffffffffff1663d15ca10985856040518363ffffffff1660e01b81526004018083815260200182815260200192505050602060405180830381600087803b1580156118ff57600080fd5b505af1158015611913573d6000803e3d6000fd5b505050506040513d602081101561192957600080fd5b81019080805190602001909291905050506004600101600184016009811061194d57fe5b610100020182610100811061195e57fe5b01819055508094505080806001019150506117a3565b5060046001016002546009811061198757fe5b61010002016000610100811061199957fe5b0154935050505090565b60006119ad61297c565b6040518060400160405280876000600281106119c557fe5b60200201518152602001876001600281106119dc57fe5b602002015181525081600001819052506040518060400160405280604051806040016040528088600060028110611a0f57fe5b6020020151600060028110611a2057fe5b6020020151815260200188600060028110611a3757fe5b6020020151600160028110611a4857fe5b60200201518152508152602001604051806040016040528088600160028110611a6d57fe5b6020020151600060028110611a7e57fe5b6020020151815260200188600160028110611a9557fe5b6020020151600160028110611aa657fe5b60200201518152508152508160200181905250604051806040016040528085600060028110611ad157fe5b6020020151815260200185600160028110611ae857fe5b6020020151815250816040018190525060606002604051908082528060200260200182016040528015611b2a5781602001602082028038833980820191505090505b50905060008090505b6002811015611b7257848160028110611b4857fe5b6020020151828281518110611b5957fe5b6020026020010181815250508080600101915050611b33565b506000611b7f8284611b9f565b1415611b9057600192505050611b97565b6000925050505b949350505050565b6000807f30644e72e131a029b85045b68181585d2833e84879b9709143e1f593f00000019050611bcd6129b0565b611bd5611dd3565b9050806080015151600186510114611c55576040517f08c379a00000000000000000000000000000000000000000000000000000000081526004018080602001828103825260128152602001807f76657269666965722d6261642d696e707574000000000000000000000000000081525060200191505060405180910390fd5b611c5d6129f8565b6040518060400160405280600081526020016000815250905060008090505b8651811015611d5c5783878281518110611c9257fe5b602002602001015110611d0d576040517f08c379a000000000000000000000000000000000000000000000000000000000815260040180806020018281038252601f8152602001807f76657269666965722d6774652d736e61726b2d7363616c61722d6669656c640081525060200191505060405180910390fd5b611d4d82611d4885608001516001850181518110611d2757fe5b60200260200101518a8581518110611d3b57fe5b6020026020010151612221565b61231c565b91508080600101915050611c7c565b50611d7f818360800151600081518110611d7257fe5b602002602001015161231c565b9050611db5611d918660000151612436565b8660200151846000015185602001518587604001518b6040015189606001516124d0565b611dc55760019350505050611dcd565b600093505050505b92915050565b611ddb6129b0565b60405180604001604052807f2c1d95f6700b4de0a4b3769693bd9f77fb2619abff6ae730bc245524db283b4281526020017f021135aac57c6adff19efff60f200682b1aa9e70c5f2dcce38eb01dbbb5e2e2a8152508160000181905250604051806040016040528060405180604001604052807f145a99ae6e01e362445061006fe81822c8544c04d46f95004963ec0fa5c7b20781526020017f2c9c101565f4e753349c6f952325e8c162ec5061aeca21125163c1a38e750ac0815250815260200160405180604001604052807f0d63e23799542cb0e62da56bc89820e97ec08146209175aa7abd218905f002ae81526020017f03ea1a394b7be087d0257f527a3fa694b7fbc03a207409e41e40c42c13a4bd4c8152508152508160200181905250604051806040016040528060405180604001604052807f0cc29cdad7bfe8b618d2b5b00cebed948f72cb15a6f65c22d8dacb37d8ebe9f581526020017f25cdd5f7b57da88a5cb7de0d5f1eecda3cc3af3664f0460e80e4c54a5c2eb49a815250815260200160405180604001604052807f27fc9a9450eba13e00617f79d4b92a494a30247631eeac90305e53e01bff4b5e81526020017f0c25bd7df8c19bb536631e0cd07b8a6e298c98add19d3c0853d63f9997a17ea58152508152508160400181905250604051806040016040528060405180604001604052807f1055d98eae6910f973fadb03dfc079d9d8c2368f51fe283a60ae39fe33a2a18581526020017f175c851bf2f37d35c199514805f70eb65e87fb6d30cd87288463b68e6e89fdf4815250815260200160405180604001604052807f2ca123752acdf2ecd0cff0d3cb5d31ee5fff1a920a59b69ad9fde34056baca1b81526020017f1bb9d764551233bff8f886e0dcb2d3ba33fc0d2e36dcc5c547239a477a85c162815250815250816060018190525060036040519080825280602002602001820160405280156120c257816020015b6120af612a12565b8152602001906001900390816120a75790505b50816080018190525060405180604001604052807f272a508020d086ece37648e1ba4517a2a380617f18fbb5c16d98dc31f2279d3681526020017f1682e4d91b771c13b7afc152fa4712a160b0b3a952d2cce672fc28cd5b2cefa5815250816080015160008151811061213157fe5b602002602001018190525060405180604001604052807f3026d30ab947be0b08d422e9634ee0fe3e5ccd853af536841366f2932b578b6a81526020017f0dc0c5cff668d22cab1c5e845261a531342df02cfb5ae1c29543c61760a3558681525081608001516001815181106121a257fe5b602002602001018190525060405180604001604052807f2e592107486e3fcaccbc8b756cf592b4b2df3a9a4bfe9cc1db5da6507ad763e881526020017f300926f37a0fe2d3a40773cc07979be6591c696755faa12a983f6cc8998bf887815250816080015160028151811061221357fe5b602002602001018190525090565b6122296129f8565b612231612a2c565b83600001518160006003811061224357fe5b60200201818152505083602001518160016003811061225e57fe5b602002018181525050828160026003811061227557fe5b602002018181525050600060608360808460076107d05a03fa9050806000811461229e576122a0565bfe5b5080612314576040517f08c379a00000000000000000000000000000000000000000000000000000000081526004018080602001828103825260128152602001807f70616972696e672d6d756c2d6661696c6564000000000000000000000000000081525060200191505060405180910390fd5b505092915050565b6123246129f8565b61232c612a4e565b83600001518160006004811061233e57fe5b60200201818152505083602001518160016004811061235957fe5b60200201818152505082600001518160026004811061237457fe5b60200201818152505082602001518160036004811061238f57fe5b602002018181525050600060608360c08460066107d05a03fa905080600081146123b8576123ba565bfe5b508061242e576040517f08c379a00000000000000000000000000000000000000000000000000000000081526004018080602001828103825260128152602001807f70616972696e672d6164642d6661696c6564000000000000000000000000000081525060200191505060405180910390fd5b505092915050565b61243e6129f8565b60007f30644e72e131a029b85045b68181585d97816a916871ca8d3c208c16d87cfd4790506000836000015114801561247b575060008360200151145b1561249f5760405180604001604052806000815260200160008152509150506124cb565b604051806040016040528084600001518152602001828560200151816124c157fe5b0683038152509150505b919050565b60006060600460405190808252806020026020018201604052801561250f57816020015b6124fc612a12565b8152602001906001900390816124f45790505b5090506060600460405190808252806020026020018201604052801561254f57816020015b61253c612a70565b8152602001906001900390816125345790505b5090508a8260008151811061256057fe5b6020026020010181905250888260018151811061257957fe5b6020026020010181905250868260028151811061259257fe5b602002602001018190525084826003815181106125ab57fe5b602002602001018190525089816000815181106125c457fe5b602002602001018190525087816001815181106125dd57fe5b602002602001018190525085816002815181106125f657fe5b6020026020010181905250838160038151811061260f57fe5b60200260200101819052506126248282612634565b9250505098975050505050505050565b600081518351146126ad576040517f08c379a00000000000000000000000000000000000000000000000000000000081526004018080602001828103825260168152602001807f70616972696e672d6c656e677468732d6661696c65640000000000000000000081525060200191505060405180910390fd5b60008351905060006006820290506060816040519080825280602002602001820160405280156126ec5781602001602082028038833980820191505090505b50905060008090505b838110156128925786818151811061270957fe5b60200260200101516000015182600060068402018151811061272757fe5b60200260200101818152505086818151811061273f57fe5b60200260200101516020015182600160068402018151811061275d57fe5b60200260200101818152505085818151811061277557fe5b60200260200101516000015160006002811061278d57fe5b60200201518260026006840201815181106127a457fe5b6020026020010181815250508581815181106127bc57fe5b6020026020010151600001516001600281106127d457fe5b60200201518260036006840201815181106127eb57fe5b60200260200101818152505085818151811061280357fe5b60200260200101516020015160006002811061281b57fe5b602002015182600460068402018151811061283257fe5b60200260200101818152505085818151811061284a57fe5b60200260200101516020015160016002811061286257fe5b602002015182600560068402018151811061287957fe5b60200260200101818152505080806001019150506126f5565b5061289b612a96565b6000602082602086026020860160086107d05a03fa905080600081146128c0576128c2565bfe5b5080612936576040517f08c379a00000000000000000000000000000000000000000000000000000000081526004018080602001828103825260158152602001807f70616972696e672d6f70636f64652d6661696c6564000000000000000000000081525060200191505060405180910390fd5b60008260006001811061294557fe5b602002015114159550505050505092915050565b604051806101000160405280600890602082028038833980820191505090505090565b604051806101000160405280612990612a12565b815260200161299d612a70565b81526020016129aa612a12565b81525090565b604051806101e001604052806129c4612a12565b81526020016129d1612a70565b81526020016129de612a70565b81526020016129eb612a70565b8152602001606081525090565b604051806040016040528060008152602001600081525090565b604051806040016040528060008152602001600081525090565b6040518060600160405280600390602082028038833980820191505090505090565b6040518060800160405280600490602082028038833980820191505090505090565b6040518060800160405280612a83612ab8565b8152602001612a90612ab8565b81525090565b6040518060200160405280600190602082028038833980820191505090505090565b604051806040016040528060029060208202803883398082019150509050509056fe54686520636f6d6d69746d656e7420686173206265656e207375626d6974746564a165627a7a723058201e7511d4ad61a3f66fc2a1c4af4f7524dc78e4de9ab311dd4fde646ad46cdf0b0029",
  "source": "pragma solidity ^0.5.0;\n\nimport \"./MerkleTree.sol\";\nimport \"./verifier.sol\";\n\n\n\n\ncontract Mixer is MerkelTree ,Verifier {\n    mapping(uint256 => bool) public roots;\n    mapping(uint256 => bool) public nullifierHashes;\n    mapping(uint256 => bool) public commitments; \n    \n\n    // Denomination of each token\n    uint256 constant public AMOUNT = 0.01 ether;\n\n    event Deposit(uint256 indexed commitment, uint256 leafIndex, uint256 timestamp);\n    event Withdraw(address to, uint256 nullifierHash);\n    event Forward(uint256 indexed commitment, uint256 leafIndex, uint256 timestamp);\n\n    // Constructor\n    // TODO: Add the denomination to the mixer constructor to customize the denomination of the mixer as we deploy it\n    constructor  (address _mimc) MerkelTree(_mimc) public {\n        \n    }\n    \n\n    // Deposit takes a commitment as a parameter\n    // The commitment in inserted in the Merkle Tree of commitment\n    function deposit (uint256 _commitment) payable public{\n        require(!commitments[_commitment], \"The commitment has been submitted\");\n        // Make sure the user paid the good denomination to append a commitment in the tree\n        // (Need to pay 1ether to participate in the mixing)\n        require(msg.value == AMOUNT);\n        uint256 insertedIndex = insert(_commitment);\n        commitments[_commitment] = true;\n        roots[getRoot()] = true;\n        emit Deposit(_commitment,insertedIndex,block.timestamp);\n    }\n\n    // The withdraw function enables a user to redeem 1 ether by providing \n    // a valid proof of knowledge of the secret\n    function withdraw(uint[2] memory a,\n            uint[2][2] memory b,\n            uint[2] memory c,\n            uint[2] memory input) public payable {\n                \n        uint256 _nullifierHash = uint256(input[1]);\n        uint256 _root = uint256(input[0]);\n\n        require(!nullifierHashes[_nullifierHash], \"The note has been already spent\");\n        require(isKnownRoot(_root), \"Cannot find your merkle root\"); // Make sure to use a recent one\n        require(verifyProof(a,b,c,input), \"Invalid withdraw proof\");\n\n        nullifierHashes[_nullifierHash] = true;\n        msg.sender.transfer(AMOUNT); // \n        emit Withdraw(msg.sender, _nullifierHash);\n    }\n\n    \n    // The forward function enables a user who has been the recipient\n    // of a \"private payment\" in the past \n    // (thus possessing the secret associated with a non-spent nullifier, and a commitment in the tree)\n    // to use it to pay someone else \n    // (ie: \"spend\" his nullifier and creating a new commitment in the tree to pay someone else)\n    function forward (\n            uint[2] memory a,\n            uint[2][2] memory b,\n            uint[2] memory c,\n            uint[2] memory input,\n            uint256 _commitment\n    ) public returns (address) {\n\n        uint256 _nullifierHash = uint256(input[1]);\n        uint256 _root = uint256(input[0]);\n        \n        require(!commitments[_commitment], \"The commitment has been submitted\");\n        require(!nullifierHashes[_nullifierHash], \"The note has been already spent\");\n        require(isKnownRoot(_root), \"Cannot find your merkle root\"); // Make sure to use a recent one\n        require(verifyProof(a,b,c,input), \"Invalid withdraw proof\");\n\n        // We insert the new commitment in the tree once:\n        // 1. We checked that the forward request was triggered by the recipient of a past payment who has an \"unspent nullifier\"\n        // 2. The proof given is valid\n        uint insertedIndex = insert(_commitment);\n        roots[getRoot()] = true;\n        // The caller of the \"forward\" function now has \"spent\" his nullifier to pay someone else \n        // This allow for people to use the payments they receive as a way to pay others\n        nullifierHashes[_nullifierHash] = true;\n        emit Forward(_commitment,insertedIndex,block.timestamp);\n    }\n\n    function isKnownRoot(uint256 _root) public returns(bool){\n        return roots[_root];\n    }\n\n}\n",
  "sourcePath": "/Users/shouhewu/Downloads/mixer_sample/contracts/Mixer.sol",
  "compiler": {
    "name": "solc",
    "version": "0.5.8+commit.23d335f2.Emscripten.clang"
  },
  "schemaVersion": "3.0.11",
  "updatedAt": "2019-11-17T16:19:50.799Z",
  "devdoc": {
    "methods": {}
  },
  "userdoc": {
    "methods": {}
  }
}